:10084D004C616D70204F6E004C616D70204F66666F
:10085D000046616E204F6E0046616E204F66660049
:0F086D0063686F6F736520312C322C332C34008D
:0C08CD00758920758DFD759850D28E2223
:0808E5008F993099FDC29922A0
:0708ED003098FDC298AF999D
:0108F40022E1
:0608A9008B088A09890A90
:1008AF00E4FDFCAB08AA09A90A8D828C8312087C8F
:0D08BF00FF600A1208E50DBD00010C80E687
:0108CC002209
:100800001208CDE4F5801208EDAE07BE310AD280A1
:100810007BFF7A08794D8025BE320AC2807BFF7A41
:100820000879558018BE330AD2807BFF7A08795E3A
:10083000800BBE340DC2807BFF7A0879651208A94F
:0D08400080C47BFF7A08796D1208A980B989
:030000000208D91A
:0C08D900787FE4F6D8FD75810A02080063
:10087C00BB010CE58229F582E5833AF583E0225031
:10088C0006E92582F8E622BBFE06E92582F8E2227B
:0D089C00E58229F582E5833AF583E4932295
:00000001FF
