:0E093B00060848656C6C6F00040E45534400BE
:070913001208EB7F0F7E00CC
:10091A00E4FDFCC3ED9FEC9E50070DBD00010C8069
:01092A00F2DA
:01092B0022A9
:1008C300AB07EB54F0F580D280C281D2827F237EC6
:1008D3000012091AC282EBC454F0F580D280C2819F
:0808E300D28212091AC282221E
:1008EB00AB07EB54F0F580C280C281D2827F237EAE
:1008FB000012091AC282EBC454F0F580C280C28187
:08090B00D28212091AC28222F5
:10088C007F281209137F0C1209137F061209137F9C
:10089C00011209137F887E1312091A7F8012091323
:1008AC00E4FA74082AF8E6FF60061208C30A80F21C
:0708BC007F327E0002091AE1
:0F092C00E4F58012088C7F0A7E0012091A80FE03
:03000000020800F3
:0C080000787FE4F6D8FD758111020847EE
:10080C0002092CE493A3F8E493A34003F68001F2CD
:10081C0008DFF48029E493A3F85407240CC8C333ED
:10082C00C4540F4420C8834004F456800146F6DFBC
:10083C00E4800B010204081020408090093BE47E08
:10084C00019360BCA3FF543F30E509541FFEE493B1
:10085C00A360010ECF54C025E060A840B8E493A378
:10086C00FAE493A3F8E493A3C8C582C8CAC583CAA3
:10087C00F0A3C8C582C8CAC583CADFE9DEE780BE5B
:0109490000AD
:00000001FF
